:020000005F2976
:0A00060000000000000000000800E8
:0A0010001D30FD00FD0B0A2808005A
:10001A0080302000D700D609570803192928570825
:10002A005605F10071080130031D0030F000701808
:10003A0020288E1321288E17032003200D1708204D
:0A004A000D130820D7361128080016
:1000540023009E182F2800002A2820005608230079
:040064009A000800F6
:10006800833021009D0520004C08F000F035F03564
:10007800700821009D0408209D149D1C44284128D7
:100088001C08F100F0011B08F0040030F10408001E
:100098002000D401D5010E10FF304C05D6000D20EC
:1000A80080305506F000803051067002031D5E282E
:1000B80050085402031883285408F0005508F1002A
:1000C800F035F10D4E08F0074F08F13D7008D200E9
:1000D8007108D3007008840071088500FF3000059E
:1000E800D6000D205208840053088500FF30000513
:1000F800D6002A202000D40A0319D50A54280E1441
:020108000800ED
:10010A0034302000B0000030B1004C30B200003072
:0E011A00B300F03021009E009D011D1408006E
:1001280020000E10FF304C05D6000D20FF304E0584
:08013800D6000D200E14080092
:1001400080302000CC00CD013E08CE003F08CF001B
:100150000530D0000030D1004C208130CC00CD01E2
:100160008C30CE00CF0194208E19B728B42881306E
:0E017000CC00CD018430CE00CF0194200800D9
:0E017E00852020003E08CC0034201D10080013
:10018C006C302000BE000030BF008030C00000305A
:10019C00C100C201C3018030C4000030C500DB3097
:1001AC00C6000030C7006830C8000030C9002B30D2
:1001BC00CA000030CB008730CC00CD013E30CE00E1
:1001CC000030CF000330D0000030D1004C20833001
:1001DC00CC00CD014830CE000030CF000230D00032
:1001EC000030D1004C208130CC00CD018430CE00C9
:1001FC00CF019420BC30CC00CD010430CE000030B7
:10020C00CF009420AE30CC00CD014430CE00003075
:10021C00CF000230D0000030D1004C20B830CC00E0
:0E022C00CD010530CE000030CF009420080038
:10023A002A302000AC000030AD005630AE0000304D
:10024A00AF00FF30A800FF30A9000030AA0000303C
:10025A00AB00FF30A000FF30A1000030A200003048
:10026A00A300FF30A400FF30A5000030A600003034
:10027A00A70023009E1690309D0021008D168D1335
:10028A002000911E4C2923001908F0004529080076
:10029A0012001E00F003031D4D29F103031D4D2911
:0202AA0008004A
:1002AC0021000D168E130D1320000D128E130D133D
:0202BC00080038
:1002BE007830210099008B01FF308C00FF308D00CB
:1002CE00FE308E0020000E1423008C018D018E0155
:1002DE000C160C15220091139313562123009F1513
:1002EE00A0309B0001309C001E151D212400141708
:1002FE00C6200230BE00BF2070082000B400710876
:10030E00B500B536B40CB536B40C0330BE00BF2004
:10031E0070082000B6007108B700B736B60CB736B5
:10032E00B60C0F30B8000030B9000A30BA000030F9
:10033E00BB000C30BC000030BD003430BE000030BD
:08034E00BF00A0208029AA29AC
:020000040001F9
:04000E00A43F1316E2
:00000001FF
