:02000000952B3E
:1000080070082000A2007108A1008A018301121063
:100018002908A3002A08A4002B08A5002C08A6007C
:100028000430DA004B2370082000DA007108DB0086
:10003800E9217008A9007108AA007208AB007308CA
:10004800AC000430D6000030D7008030F00080309B
:1000580057067002031D32285608003C03187E28F4
:100068005608F0005708F100F035F10DF035F10DA4
:1000780041307007D8000030713DD9000130560278
:10008800F3000030573BF4007308F0007408F100E7
:10009800F035F10DF035F10D413070078400003076
:1000A800713D85000008F00001310008F1000131C0
:1000B8000008F20001310008F300C630F400C43033
:1000C800F5006630F6007D30F700F021580886000C
:1000D8005908870070088100710841318100720851
:1000E800413181007308413181000130D60200306E
:1000F800D73B29282308F0002408F1002508F2003E
:100108002608F3002908F4002A08F5002B08F60051
:100118002C08F700AC220A30F400D730F500233061
:10012800F6007730F700F0219D30F4009D30F5009F
:100138000C30F6007E30F700F0217008C10071081D
:10014800C2007208C3007308C400D601D70180300A
:100158005706F00080307002031DB428053056029F
:100168000318E2285608F0005708F100F035F10DA1
:10017800F035F10D41307007D8000030713DD900DD
:100188002708F0002808F1004B2158088400590876
:1001980085000008F40001310008F500013100086D
:1001A800F60001310008F700AC2250227008A700C1
:1001B8007108A800D60A0319D70AAB282208F0004C
:0601C8002108F10009000E
:0E01CE00F201F101F001F801F3010030080028
:1001DC007B15FB1FF8280130F300F201F101F0014F
:0801EC00FA0DF20CFF300800CF
:0801F400FA1FF21300300800AD
:0A01FC001D30FD00FD0B0029080076
:10020600A0017208031D18297108F2007008F10098
:10021600F001A0157208031D18297108F200F101FA
:10022600A01120167208031926292008F302031DBF
:10023600031C2A290310F21B2E29F00DF10DF20DD5
:10024600F30B1E292A290130FC00E7203129023050
:0E025600FC00EE2031290430FC00FA200800E4
:10026400FB14FB1F3C29FF30F300F200F100F00007
:08027400FA0DF20CFF30080046
:10027C007B14FB1F4929F201FA1FFF30F200F10039
:0A028C00F000FA0DF20CFF3008003C
:1002960020007008F8007108F000F101F201F30186
:1002A600FB01FC019630F300FA01F01F6029F80902
:1002B600F009F80A0319F00AFA177008F10078082D
:0A02C600F000F801F2010321080026
:1002D0007C189E29FC186F297C19BD296829A0016A
:1002E0007208031D8F297108F2007008F100780868
:1002F000F000F801A0157208031D8F297108F200A3
:100300007008F100F001A01120167208031D8F295A
:100310007108F200F101A01572080319B129200833
:10032000F302031D031CB5290310F21B9E29F80DCF
:10033000F00DF10DF20DF30B9529B5297B1B701C07
:10034000B929F81FB929F00A0319F10A0319F20AA9
:10035000031DB929F20CF10CF00CF30A0319BD29A5
:10036000B9290130FC00E720C0290230FC00EE2052
:10037000C0290430FC00FA20C0290830FC003221DA
:040380000000080071
:10038400833021009D0520005C08F000F035F03535
:10039400700821009D04FE209D149D1CD229CF29A4
:1003A4001C08F100F0011B08F0040030F1040800FF
:1003B400C2302000AD000130AE005C30AF00003030
:0E03C400B000F03021009E009D011D140800C5
:0E03D20020005A08F0005B08F1004B210800E3
:1003E0002000FB017308031D77080319462A7208D1
:1003F0007606FA007708F3077E30031C032AF3021F
:100400000318492A062AF302031C4C2A7208F80032
:100410007108FC007008FD00F817F6170310F201D0
:10042000F101F0011830A0007D1C202A7408F007AB
:1004300075080318750FF10776080318760FF20791
:10044000F20CF10CF00CF80CFC0CFD0C0310A00BE2
:10045000142AF21B302AF80DF00DF10DF20DF30302
:100460007B1B701C422AF81F422AF00A0319F10A6A
:100470000319F20A031D422AF20CF10CF00CF30AE4
:100480000319492AFA1FF21300304E2A0130E720DF
:100490004E2A023032214E2A0430EE20000008009D
:1004A0002000FB01730803198C2A7208FA00F21766
:1004B0008E30F302F31F8F2AF309F30A0830730218
:1004C000031C722AF300F10D7208F100F2010830EA
:1004D0007302031C722AF300F10DF1017308031D6E
:1004E00003107A2A730803197A2A0310F20CF10C0C
:1004F000F30B752A7B1B711C842A031C842AF10AC6
:100500000319F20AF21B9B2AFA1F9E2AF209F1092B
:10051000F10A0319F20A9E2AF201F1019E2A7B14C4
:10052000FB1FA12AF201FA1FA12AFF30F200F100FD
:10053000FA0DF20CA12A0130FC00A32A0030FC00C5
:10054000A32AFF30FC00FC080319A72A3E217108EA
:08055000F0007208F100080040
:10055800200072087606A000F801F90173087702F6
:10056800031CCE2A7708FD007308F7007D08F30006
:100578007608FD007208F6007D08F2007508FD0097
:100588007108F5007D08F1007408FD007008F4009A
:100598007D08F00077080319472B7208FA00F21754
:1005A800F61777087302F7000319012B0830770252
:1005B800031CF72AF7007408F9007508F400760898
:1005C800F500F60108307702031CF72AF7007408D3
:1005D800F9007508F400F50108307702031CF72AC2
:1005E8007A08F200472B77080319012B0310F60C41
:1005F800F50CF40CF90CF70BFA2AA01F0E2BF909CD
:10060800F409F509F609F90A0319F40A0319F50AB0
:100618000319F60A7908F80774080318740FF00725
:1006280075080318750FF10776080318760FF20797
:10063800A01B272B031C372BF20CF10CF00CF80C29
:10064800F30F372B432B03183B2BF809F009F1095B
:10065800F209F80A0319F00A0319F10A0319F20A50
:100668008030FA063F2B0130FC006821492B02300C
:10067800FC006821492B0430FC000321492B083079
:0E068800FC003221492B0030FC00000008006D
:0E069600DA2120005A08DC00C2211D100800E5
:1006A40023009E18572B0000522B200055082300CE
:0406B4009A000800A0
:1006B80052302000B1000330B2005530B300003092
:1006C800B400FF30BD00FF30BE000030BF00003076
:1006D800C000FF30B900FF30BA000030BB00003066
:1006E800BC00FF30B500FF30B6000030B700003066
:1006F800B80023009E1690309D0021008D168D13A2
:100708002000911E8B2B23001908F000842B080071
:1007180012001E00F003031D8C2BF103031D8C2B0C
:020728000800C7
:10072A002000A301A401A501A601A701A801A9010E
:10073A00AA01AB01AC017830210099008B01FF308E
:10074A008C00FF308D00FF308E0023008C018D015C
:10075A008E010C162200911393130A3025009A0079
:10076A00403098009C309900013020009800210008
:10077A0091010130920093019401C0308B00230053
:10078A009F15A0309B0001309C001E155C232000A1
:0A079A002708D5005223CC2BD12BE9
:020000040001F9
:04000E00A43F1316E2
:00000001FF
