:02000000CB2D06
:0E000600F201F101F001F801F30100300800F1
:100014007B15FB1F14280130F300F201F101F001FC
:08002400FA0DF20CFF30080098
:08002C00FA1FF2130030080076
:10003400FB14FB1F2428FF30F300F200F100F00052
:08004400FA0DF20CFF30080078
:10004C007C185C28FC182D287C197B282628A001FC
:10005C007208031D4D287108F2007008F100780831
:10006C00F000F801A0157208031D4D287108F2006C
:10007C007008F100F001A01120167208031D4D2824
:10008C007108F200F101A015720803196F282008FD
:10009C00F302031D031C73280310F21B5C28F80DDC
:1000AC00F00DF10DF20DF30B532873287B1B701C14
:1000BC007728F81F7728F00A0319F10A0319F20AB6
:1000CC00031D7728F20CF10CF00CF30A03197B28B2
:1000DC0077280130FC0003207E280230FC000A2027
:1000EC007E280430FC0016207E280830FC001A20E4
:0400FC0000000800F8
:10010000A0017208031D95287108F2007008F10023
:10011000F001A0157208031D95287108F200F10185
:10012000A011201672080319A3282008F302031D4A
:10013000031CA7280310F21BAB28F00DF10DF20DE4
:10014000F30B9B28A7280130FC000320AE280230C7
:0E015000FC000A20AE280430FC001620080037
:0E015E00073083120313FD00FD0BB3280800C9
:04016C000000080087
:100170008312031372087606A000F801F9017308D0
:100180007702031CDB287708FD007308F7007D0861
:10019000F3007608FD007208F6007D08F20075088D
:1001A000FD007108F5007D08F1007408FD0070087D
:1001B000F4007D08F0007708031954297208FA004A
:1001C000F217F61777087302F70003190E290830A3
:1001D0007702031C0429F7007408F9007508F4007D
:1001E0007608F500F60108307702031C0429F700B1
:1001F0007408F9007508F400F50108307702031C53
:1002000004297A08F2005429770803190E290310EB
:10021000F60CF50CF40CF90CF70B0729A01F1B29A1
:10022000F909F409F509F609F90A0319F40A031999
:10023000F50A0319F60A7908F80774080318740F09
:10024000F00775080318750FF10776080318760F85
:10025000F207A01B3429031C4429F20CF10CF00C0A
:10026000F80CF30F4429502903184829F809F0091C
:10027000F109F209F80A0319F00A0319F10A03193E
:10028000F20A8030FA064C290130FC00262056295B
:100290000230FC00262056290430FC00802056291C
:1002A0000830FC001A2056290030FC00000008002D
:1002B00083120313F801F9011030FC00710DF80DE1
:1002C000F90D7408F8027508031C750FF90203187C
:1002D00070297408F80775080318750FF9070310DB
:0A02E000F00DF10DFC0B5E29080083
:1002EA00803083120313DC00DB095C0803199329AD
:1002FA005C085B05F10071080130031D0030F00055
:10030A007018892987138A298717B620B6200617F5
:0E031A00AF200613AF20DC0CDC137A2908009C
:0E0328008312031346088A004508820008006D
:10033600831203137008F8007108F000F101F2014E
:10034600F301FB01FC019630F300FA01F01FB1291D
:10035600F809F009F80A0319F00AFA177008F1000B
:0C0366007808F000F801F2018020080087
:10037200831603139818BF290000B92983125B085A
:0403820099000800D6
:1003860083120313FB01FA01F9018030F800F10C26
:10039600F00C031CD7297408F90775080318750FA4
:1003A600FA070318FB0A0310F01FDF297408FA077F
:1003B60075080318750FFB07FB0CFA0CF90CF80C03
:1003C600031CCA297B08F3007A08F2007908F100B9
:0603D6007808F0000800A9
:1003DC0083120313FB017308031D77080319452AC5
:1003EC0072087606FA007708F3077E30031C022A9F
:1003FC00F3020318482A052AF302031C4B2A72083D
:10040C00F8007108FC007008FD00F817F6170310CF
:10041C00F201F101F0011830A0007D1C1F2A7408B4
:10042C00F00775080318750FF10776080318760F97
:10043C00F207F20CF10CF00CF80CFC0CFD0C031098
:10044C00A00B132AF21B2F2AF80DF00DF10DF20D53
:10045C00F3037B1B701C412AF81F412AF00A031975
:10046C00F10A0319F20A031D412AF20CF10CF00CEB
:10047C00F30A0319482AFA1FF21300304D2A0130EF
:10048C0003204D2A02301A204D2A04300A20000085
:02049C00080056
:10049E0083120313DE0105305E0203185D2A5E0827
:1004AE005D07840020308000DE0A522A5E085D0758
:1004BE0084008001DE035E085D07DF000A30F40071
:1004CE00F5015B08F0005C08F10058217808F00097
:1004DE007908F1003030F0075F0884007008800062
:1004EE000A30F400F5015B08F0005C08F1005821B9
:1004FE007008DB007108DC0000307106031D892ACC
:10050E0000307006031D8C2A8E2ADE03622A080034
:10051E007B14FB1F9A2AF201FA1FFF30F200F10042
:0A052E00F000FA0DF20CFF30080097
:0C053800831203138030F606B820080080
:0E0544000030831203138C1A0130F0000800FF
:10055200831203131A08F100981CB12A18121816F4
:060562007108F000080022
:1005680083120313D301D4015308520784000008EF
:10057800003A0319C92A5308520784000008DB000F
:0C058800B921D30A0319D40AB82A0800CC
:1005940083120313FB0173080319072B7208FA0073
:1005A400F2178E30F302F31F0A2BF309F30A083013
:1005B4007302031CED2AF300F10D7208F100F2013D
:1005C40008307302031CED2AF300F10DF1017308E6
:1005D400031D0310F52A73080319F52A0310F20CFE
:1005E400F10CF30BF02A7B1B711CFF2A031CFF2A5E
:1005F400F10A0319F20AF21B162BFA1F192BF2093E
:10060400F109F10A0319F20A192BF201F101192B6C
:100614007B14FB1F1C2BF201FA1F1C2BFF30F20072
:10062400F100FA0DF20C1C2B0130FC001E2B0030E3
:10063400FC001E2BFF30FC00FC080319222B8F2228
:0A0644007108F0007208F1000800D0
:10064E00803083120313F000803053067002031DB6
:10065E00322B5208763C0318582B5208813CF0007E
:10066E005308031C013EF101F1029B215630F400A8
:10067E000E30F5006B30F6008130F700EE21CD30F4
:10068E00F4008C30F5007330F6008830F700B82097
:10069E007008D4007108D5007208D6007308D70010
:1006AE00292D8030F000803053067002031D612B1F
:1006BE0052086C3C0318872B5208813CF0005308FB
:1006CE00031C013EF101F1029B21F730F40075305D
:1006DE00F5000430F6008230F700EE21A530F4006C
:1006EE005E30F5007230F6008830F700B8207008E2
:1006FE00D4007108D5007208D6007308D700292DD2
:10070E008030F000803053067002031D902B52088B
:10071E00623C0318B62B5208813CF0005308031CB0
:10072E00013EF101F1029B215930F4001730F50022
:10073E001D30F6008230F700EE211230F4008430C6
:10074E00F5006A30F6008830F700B8207008D40043
:10075E007108D5007208D6007308D700292D803095
:10076E00F000803053067002031DBF2B5208583C18
:10077E000318E52B5208813CF0005308031C013E80
:10078E00F101F1029B211B30F4002F30F5002D30CA
:10079E00F6008230F700EE21EC30F4008830F500E0
:1007AE006230F6008830F700B8207008D400710867
:1007BE00D5007208D6007308D700292D8030F000BE
:1007CE00803053067002031DEE2B52084E3C031868
:1007DE00142C5208813CF0005308031C013EF10119
:1007EE00F1029B219C30F400C430F5005A30F60023
:1007FE008230F700EE213830F4006C30F5004530D1
:10080E00F6008830F700B8207008D4007108D500C3
:10081E007208D6007308D700292D8030F000803082
:10082E0053067002031D1D2C5208443C0318432C22
:10083E005208813CF0005308031C013EF101F10205
:10084E009B218F30F400C230F5000A30F600833061
:10085E00F700EE21F230F4005430F5001630F600B9
:10086E008830F700B8207008D4007108D5007208DF
:10087E00D6007308D700292D8030F0008030530643
:10088E007002031D4C2C52083A3C0318722C52086D
:10089E00813CF0005308031C013EF101F1029B2143
:1008AE00E530F400D030F5002530F6008330F70047
:1008BE00EE21F130F4001430F5004630F6008730AA
:1008CE00F700B8207008D4007108D5007208D60061
:1008DE007308D700292D8030F00080305306700247
:1008EE00031D7B2C5208303C0318A12C5208813C6E
:1008FE00F0005308031C013EF101F1029B213F3031
:10090E00F4003530F5006130F6008330F700EE214B
:10091E009330F4007A30F5007F30F6008530F70022
:10092E009C227008D4007108D5007208D600730896
:10093E00D700292D8030F000803053067002031D41
:10094E00AA2C5208263C0318D02C5208813CF000E9
:10095E005308031C013EF101F1029B215C30F400AF
:10096E008F30F5001F30F6008430F700EE21BC30DA
:10097E00F400C830F5000630F6008930F7009C22EE
:10098E007008D4007108D5007208D6007308D7001D
:10099E00292D8030F000803053067002031DD92CB3
:1009AE0052081C3C0318FF2C5208813CF0005308DF
:1009BE00031C013EF101F1029B21E130F4007A307B
:1009CE00F5006930F6008430F700EE214C30F4006B
:1009DE00D330F5002C30F6008A30F7009C227008D8
:1009EE00D4007108D5007208D6007308D700292DDF
:1009FE008030F000803053067002031D082D52081F
:100A0E00123C0318292D5208813CF0005308031C98
:100A1E00013EF101F1026130F4000030F500C32116
:100A2E009B213330F4008330F5005030F6008B30CC
:100A3E00F7009C227008D4007108D5007208D60009
:100A4E007308D7005408F0005508F1005608F2005C
:060A5E005708F300080038
:100A6400831203135408DB0075215208DB0075213F
:020A7400080078
:100A760083160313981690308312980083168616F1
:100A8600861383128C1E4A2D1A08F000442D080086
:100A960094218A110A128000840AC50A0319C60A1B
:080AA600F003031D4B2D0800B5
:100AAE0083120313D701D8015208D9005308DA0074
:100ABE0080305306F00080307002031D682D003028
:100ACE0052020318762D0130D7000030D80052089C
:100ADE00003CD9005308031C013EDA01DA02590822
:100AEE00DB005A08DC005408DD004F220630D5002A
:100AFE000030D6005608003C031D872D5508003CDB
:100B0E000318A22D55085407F20001305502F000CB
:100B1E000030031C013E5602F10070085407840099
:100B2E000008F00072088400700880000130D502C1
:100B3E00031CD603812D54088400203080005708F2
:100B4E0058040319C02DD501D60155085407840049
:100B5E000008203A031DB72DD50A0319D60AAC2D6D
:100B6E000130D502031CD6035508540784002D30DE
:040B7E0080000800EB
:100B8200831603130616871306138312061287139E
:040B9200061308003E
:100B96000A27FF30831603138700FF308600FF30D5
:100BA6008500831203179E019F0199139A13C1258D
:100BB60019308316990018153B258B012408D2009D
:100BC6002508D3001030D4000030D5003225260881
:100BD600D2002708D300D401D50132250B30FB0003
:100BE6002630FC005D30FD00FD0BF72DFC0BF72DCC
:100BF600FB0BF72D00000000A030D200B422A22289
:100C06007008031D072E022EA9227008D100700855
:100C16007A3A031D262E80302506F00080307002B9
:100C2600031D172E8030240203181C2EA40A031954
:100C3600A50A2408D2002508D3001030D4000030BD
:100C4600D50032257B2E5108613A031D432E803094
:100C5600F000803025067002031D332E2408063C62
:100C66000318392E0130A402031CA5032408D20060
:100C76002508D3001030D4000030D50032257B2E55
:100C86005108783A031D5D2E80302706F00080302B
:100C96007002031D502E803026020318552EA60A18
:100CA6000319A70A2608D2002708D300D401D501C4
:100CB60032257B2E5108733A031D782E8030F000C2
:100CC600803027067002031D6A2E2608003C031892
:100CD600702E0130A602031CA7032608D20027089F
:100CE600D300D401D50132257B2E2830D200B42280
:100CF6003830D200B4222408D2002508D300272396
:100D0600CA227008D2007108D3004730D400572594
:100D16004730D200B4222130D200B422FF2D922EC9
:100E140021308400243083120313F000E530C50030
:100E24000630C6004B25A03084004D3083120313D6
:0E0E3400F0009830C5000630C6004B250800BF
:100D30004634723465347134753465346E346334DA
:100D400079343A3470347234653473347334203403
:100D50006134203474346F34203472346134693433
:100D6000733465342C347A34203474346F34203442
:100D70006C346F347734653472342E342034563406
:100D80006F346C3474346134673465343A3470349D
:100D900072346534733473342034733420347434CF
:100DA0006F342034723461346934733465342C34D4
:100DB0007834203474346F3420346C346F347734A6
:0A0DC000653472340D340A34003437
:060DCA000D340A34003470
:040DD0008034003437
:040DD40000340034B3
:100DD80049346E34763461346C3469346434203484
:100DE80045346E347434723479340D340A34003432
:100DF8004634723465347134753465346E34633412
:0A0E0800793420343D3420340034E6
:02400E00F20FAF
:00000001FF
