:020000006E2967
:0A0006001D30FD00FD0B0528080069
:100010002000F801F9011030FC00710DF80DF90D08
:100020007408F8027508031C750FF90203181F28DD
:100030007408F80775080318750FF9070310F00D19
:08004000F10DFC0B0D28080076
:100048002000CD0105304D02031834284D084B0718
:10005800860000304C3D870020308100CD0A2628DC
:100068004D084B07860000304C3D87008101CD03C9
:100078004D084B07CE0000304C3DCF000A30F4004D
:10008800F5014908F0004A08F10008207808F00056
:100098007908F1003030F0074E0886004F088700D5
:1000A800700881000A30F400F5014908F0004A0898
:1000B800F10008207008C9007108CA0000307106F4
:1000C800031D682800307006031D6B286D28CD03BA
:0400D8003C280800B8
:1000DC0023009E18732800006E2820004908230076
:0400EC009A0008006E
:1000F000833021009D0520004908F000F035F035DF
:10010000700821009D0403209D149D1C88288528CB
:100110001C08F100F0011B08F0040030F104080095
:1001200078302000A4000030A5004930A60000303F
:0E013000A700F03021009E009D011D14080064
:10013E002000C501C6013F08C7004008C800803036
:10014E004006F00080307002031DAF2800303F02E1
:10015E000318BD280130C5000030C6003F08003C22
:10016E00C7004008031C013EC801C8024708C90069
:10017E004808CA004108CB004208CC0024200630B3
:10018E00C3000030C4004408003C031DD0284308BF
:10019E00003C0318EB284308410786004408423D03
:1001AE00870001304302F0000030443BF10070083C
:1001BE00410784007108423D85000008810001302E
:1001CE00C3020030C43BCA2841088600420887009B
:1001DE00203081004508460403191129C301C401CA
:1001EE004308410784004408423D85000008203A38
:1001FE00031D0529C30A0319C40AF7280130C302D7
:10020E000030C43B4308410786004408423D870046
:06021E002D3081000800F4
:1002240012001E00F003031D1229F103031D1229FD
:020234000800C0
:100236002000C101C20141083F0784004208403D39
:1002460085000008003A0319362941083F07840053
:100256004208403D85000008C9006E202000C10A02
:080266000319C20A1E29080059
:0E026E00902020003F08C90078201D100800D5
:10027C006E302000B0000030B1004930B2000030C8
:10028C00B300FF30A800FF30A9000030AA000030F6
:10029C00AB00FF30A000FF30A1000030A200003006
:1002AC00A300FF30AC00FF30AD000030AE000030DA
:1002BC00AF0023009E1690309D0021008D168D13EB
:1002CC002000911E6D2923001908F00066290800F2
:1002DC000A302000BD00BE017830210099008B014E
:1002EC00FF308C00FF308D00FF308E001430230067
:1002FC008C008D018E019F15A0309B0001309C005D
:10030C001E153E2102302000BF003721700820004E
:10031C00B4007108B5000330BF003721700820000D
:10032C00B6007108B7003408BF003508C00038307B
:10033C00C1000030C2009F203830BF000030C00028
:10034C001B213608BF003708C0003830C100003010
:10035C00C2009F203830BF000030C0001B213D3050
:10036C00BF000030C0001B211530FB004B30FC00DF
:10037C00BE30FD00FD0BC029FC0BC029FB0BC029B6
:06038C0000008829C829C9
:020000040001F9
:04000E00A43F1316E2
:00000001FF
