:020000003C2A98
:0A00060000000000000000000800E8
:0A0010001D30FD00FD0B0A2808005A
:10001A0080302000D700D609570803192928570825
:10002A005605F10071080130031D0030F000701808
:10003A0020288E1321288E17032003200D1708204D
:0A004A000D130820D7361128080016
:100054002000FB01FA01F9018030F800F10CF00CEA
:10006400031C3D287408F90775080318750FFA076F
:100074000318FB0A0310F01F45287408FA077508D3
:100084000318750FFB07FB0CFA0CF90CF80C031C96
:1000940030287B08F3007A08F2007908F100780828
:0400A400F000080060
:0A00A8000D30FD00FD0B5628080086
:1000B20020000E10FF305205D6000D20FF305405EF
:0800C200D6000D200E14080009
:1000CA0021008E1120001C150C3025009A0408000E
:1000DA0021008E1220001C150C3025009304080004
:1000EA0020001B08013EF000F1010030F13D4A08F2
:1000FA00F400F5012A200630F2007008F4007108B5
:10010A00F500720803198D28F536F40CFF3E87288E
:10011A000430F1007408F000710803199728F035CB
:10012A00FF3E922830307005F3007408F00075081D
:10013A00F100F136F00CF136F00C70082500980049
:0A014A000F309A0573089A040800AC
:0A0154002500910113129312080018
:10015E0020001B08013EF000F1010030F13D4A087D
:10016E00F400F5012A200630F2007008F400710840
:10017E00F50072080319C728F536F40CFF3EC128A6
:10018E000430F1007408F00071080319D128F0351D
:10019E00FF3ECC2830307005F3007408F00075086F
:1001AE00F100F136F00CF136F00C700825009100DC
:0A01BE000F30930573089304080046
:0A01C800250098011A129A1208008F
:1001D20081302000D200D3018430D400D5015920CF
:1001E2008130D200D3019030D400D50159200800CB
:1001F20080302000CB00CA094B0803191E294B0886
:100202004A05F10071080130031D0030F00070183A
:100212000C298E130D298E17032003200D1754204D
:100222004B08CA040D1A19294B09F0007008CA05B7
:1002320054200D130820CB36FD284A08F000080090
:100242002000D001D1010E10FF304A05D6000D204A
:1002520080305106F00080304F067002031D3329B2
:100262004E085002031849295008F0005108F100C5
:10027200F035F10D70084C07840071084D3D850082
:10028200FF300005D6000D20D00A0319D10A292912
:040292000E1408003E
:100296000B302000A4000230A5003C30A600003040
:1002A600A700FF30A000FF30A1000030A200003000
:1002B600A300FF30AC00FF30AD000030AE000030D0
:1002C600AF00FF30A800FF30A9000030AA000030C0
:1002D600AB0023009E1690309D0021008D168D13D5
:1002E6002000911E7A2923001908F00073290800BE
:1002F6002000C001C1013C08BE003D08BF000E1031
:100306008C1A86298329D6010D200A303C07F10074
:1003160000303D3DF20072083F02031D942971082A
:100326003E020318AA29FF304005CA00F920003012
:10033600F1003E0886003F088700700881007108BA
:10034600413181000230BE070030BF3D8829E920D7
:040356000E14080079
:10035A006C302000BC000030BD008030BE00003090
:10036A00BF00C001C1018030C2000030C300DB30D1
:10037A00C4000030C5006830C6000030C7002B300A
:10038A00C8000030C9008730CA00CB013C30CC001D
:10039A000030CD000330CE000030CF002121833061
:1003AA00CA00CB014630CC000030CD000230CE006E
:1003BA000030CF0021218130D200D3018430D40013
:1003CA00D5015920AE30CA00CB014230CC000030F2
:1003DA00CD000230CE000030CF002121B830D2004B
:1003EA00D3010530D4000030D5005920A530D20001
:1003FA00D3014030D4000030D50059208130D200DA
:0C040A00D3019030D400D5015920080027
:1004160023009E18102A00000B2A20003C08230007
:040426009A00080030
:10042A0012001E00F003031D152AF103031D152AED
:02043A000800B8
:10043C0021000D168E130D1320000D128E130D13AB
:02044C000800A6
:10044E0020001C149C10C7309B00AA2020001C14F6
:10045E009C10C7309B00E4202000CA01AF20200072
:0A046E00CA0175206D20652008000A
:100478002000BA01BB017830210099008B01EB30D4
:100488008C00FF308D0086308E0020000E14230073
:100498008C018D018E012200911393131E222400DA
:1004A80014172722AD2123009F15A0309B0001308F
:1004B8009C001E154B2130302000BC000030BD00D0
:1004C8007B21BA01BB0180303B06F000803070020E
:1004D800031D702A05303A020318862A3A08F000EC
:1004E8003B08F100F035F10D303070078400003022
:1004F800713D85000008BC000B222000BA0A0319D0
:10050800BB0A672A0230FB000430FC00BA30FD0049
:10051800FD0B8C2AFC0B8C2AFB0B8C2A00005F2A13
:02052800942A13
:020000040001F9
:04000E00A43F1316E2
:00000001FF
