:02000000CD2B06
:10000800FF00030E8301D6000A08D5008A01700894
:10001800A9007108A8007208A7007408A60075084E
:10002800A5007808A4007908A3007B08A2007C0832
:10003800A1007D08A0008B1E27280B1D2728402221
:100048005F3081070B112908F0002808F100270804
:10005800F2002608F4002508F5002408F800230813
:10006800F9002208FB002108FC002008FD005508C3
:0C0078008A00560E8300FF0E7F0E090068
:1000840083120313F801F9011030FC00710DF80D0F
:10009400F90D7408F8027508031C750FF9020318AA
:1000A4005A287408F80775080318750FF907031020
:0A00B400F00DF10DFC0B48280800C8
:1000BE000E3083120313FD00FD0B632800000800B1
:1000CE00710DF80DF90D7408F8027508031C750F03
:1000DE00F902F00DF10D0F30FC00710DF80DF90D58
:1000EE007408701C8028F8027508031C750FF9023D
:1000FE008528F80775080318750FF907F00DF10D2F
:10010E00FC0B7428701891287408F80775080318EA
:08011E00750FF907000008004D
:1001260083120313E501053065020318A12865084B
:100136006407840020308000E50A96286508640775
:1001460084008001E50365086407E6000A30F400D0
:10015600F5016208F0006308F10042207808F0001B
:100166007908F1003030F0076608840070088000D6
:100176000A30F400F5016208F0006308F10042203D
:100186007008E2007108E30000307106031DCD28F7
:1001960000307006031DD028D228E503A6280800E3
:1001A600831603139818D9280000D32883126208EF
:0401B60099000800A4
:1001BA00FF3083120313B000FF30B100FF30B200EA
:1001CA00FF30C3309F0540309F05F03083169F04EF
:0801DA0083129F171F14080097
:0E01E2008312031338088A00370882000800D1
:1001F0008316031398169030831298008316861680
:10020000861383128C1E07291A08F00001290800A2
:1002100083120313DE01DF015908E0005A08E100F0
:1002200080305A06F00080307002031D192900301A
:100230005902031827290130DE000030DF00590879
:10024000003CE0005A08031C013EE101E1026008A5
:10025000E2006108E3005B08E40093200630DC0064
:100260000030DD005D08003C031D38295C08003CBF
:10027000031853295C085B07F20001305C02F000B0
:100280000030031C013E5D02F10070085B07840032
:100290000008F00072088400700880000130DC0261
:1002A000031CDD0332295B088400203080005E08D7
:1002B0005F0403197129DC01DD015C085B07840020
:1002C0000008203A031D6829DC0A0319DD0A5D29AC
:1002D0000130DC02031CDD035C085B0784002D3069
:0402E0008000080092
:1002E400831203137408003A031D81297508003A28
:1002F400031D8129FF30F0007F30F100DA298312D9
:100304000313FD01F901F8017108700403190034A5
:1003140071087506FA00FA1BFD09FB01F51F972900
:10032400F409F509F40A0319F50AF11F9E29F009E5
:10033400F109F00A0319F10A71087504FA00FA1BAD
:10034400B32967207B18C629FD1F0034F009F10981
:10035400F00A0319F10AF809F909F80A0319F90A64
:100364000034F51FC229F11BBE297108F900700879
:10037400F800F101F001A629F101F001F00A0034BE
:10038400F109F009FB0AA329F80A0319F90A740808
:100394007802031DA62975087902031DA629F9010F
:1003A400F801F00A0319F10AF11FA6290000FF342D
:0203B40008003F
:1003B60083120313DB01590884000008DA005A0887
:1003C600003A0319F0295A08E200D320DB0A5B0839
:0C03D600590784000008DA00E229080042
:1003E200C330831203139F0540309F05F0308316FC
:1003F2009F0483129F176708F000F00D7010F00D34
:10040200701070089F041F145F209F149F1C0B2AFA
:100412000000072A1F101E08F100F00183161E08B3
:08042200F0040030F1040800B1
:10042A0083120313FB01FA01F9018030F800F10C81
:10043A00F00C031C292A7408F90775080318750FAC
:10044A00FA070318FB0A0310F01F312A7408FA0787
:10045A0075080318750FFB07FB0CFA0CF90CF80C5E
:10046A00031C1C2A7B08F3007A08F2007908F100C1
:06047A007808F000080004
:10048000033083120313E700F12170088312B300D5
:100490007108B40080305406F0008030073A7002D2
:1004A000031D542AD03053020318A32A3308D10065
:1004B0003408D20080303C06F000803034067002F0
:1004C000031D642A33083B0203187C2A3B085102AF
:1004D000F3003C08031C013E5202F4007308F000D4
:1004E0007408F100F10CF00CF113711BF117700896
:1004F000F5007108F600992A51083B02F3005208F2
:10050000031C013E3C02F4007308F0007408F10083
:10051000F10CF00CF113711BF1177008003CF000A6
:100520007108031C013EF101F1027008F500710829
:10053000F6007508BB0776080318013EBC07D30A0E
:100540000319D40A862B80305206F000803034061E
:100550007002031DAD2A330851020318CC2A51083A
:100560003302F3005208031C013E3402F40003304E
:10057000F2007308F0007408F10072080319C72A2A
:10058000F10CF00CF113711BF117FF3EBE2A70083D
:10059000F5007108F600F02A33085102F300340820
:1005A000031C013E5202F4000330F2007308F00015
:1005B0007408F10072080319E42AF10CF00CF1132D
:1005C000711BF117FF3EDB2A7008003CF000710838
:1005D000031C013EF101F1027008F5007108F600FC
:1005E00075085107F10052080318013E7607F20022
:1005F0007108D1007208D20080303C06F0008030D3
:1006000072067002031D062B71083B020318252B8E
:100610003B085102F3003C08031C013E5202F40067
:100620000530F2007308F0007408F1007208031935
:10063000202BF10CF00CF113711BF117FF3E172B5F
:100640007008F5007108F600492B51083B02F300D1
:100650005208031C013E3C02F4000530F20073080E
:10066000F0007408F100720803193D2BF10CF00C36
:10067000F113711BF117FF3E342B7008003CF000A2
:100680007108031C013EF101F1027008F5007108C8
:10069000F60075083907F0003A080318013E76079E
:1006A000F1007008B9007108BA006830F400013038
:1006B000F50072210630F4000030F50015227008B4
:1006C0005A3EF20000300318013E7107F300720831
:1006D000B5007308B60080307306F00080307002F9
:1006E000031D742B003072020318782BB501B6017C
:1006F0008030F000803036067002031D812B3508F3
:0E070000B43C0318862BB430B500B6010800D7
:10070E00831203135708D9005808DA003D30DB0076
:10071E0008213D30D900DB212030E200D320080033
:06072E008B168B1708007A
:10073400F1208A110A128000840AB70A0319B80A40
:08074400F003031D9A2B0800CD
:10074C00831603130F168F160F17FF308500FF301B
:10075C008600FF308700831203179F019E0108302B
:10076C009E0019308316031399001815F820DD200C
:10077C00D330831681008312D301D401EE30D10023
:0E078C000230D200BB01BC01B901BA01080065
:10079A000D3083120313AA000A30AB00AC010D30EE
:1007AA00AD000A30AE00AF010B30FB002630FC0072
:1007BA005D30FD00FD0BDF2BFC0BDF2BFB0BDF2B72
:1007CA0000000000A62397230230FB000430FC003F
:1007DA00BA30FD00FD0BEF2BFC0BEF2BFB0BEF2BC5
:1007EA00000080305406F0008030073A7002031D82
:1007FA00002CD03053020318152C5308D700540884
:10080A00D80087235108D7005208D80087233B080D
:10081A00D7003C08D80087232D30D900DB212C2CA7
:10082A005108D7005208D80087233B08D7003C0854
:10083A00D80087233908D7003A08D8008723350813
:10084A00D7003608D80087232A30D900DB21E92BC4
:02085A002D2C43
:02400E00F40FAD
:00000001FF
